:100000000C9472000C948B000C948B000C948B005D
:100010000C948B000C948B000C948B000C948B0034
:100020000C948B000C948B000C948B000C948B0024
:100030000C948B000C948B000C948B000C948B0014
:100040000C948B000C948B000C948B000C948B0004
:100050000C948B000C948B000C948B000C948B00F4
:100060000C948B000C948B000C948B000C948B00E4
:100070000C948B000C948B000C948B000C948B00D4
:100080000C948B000C948B000C948B000C948B00C4
:100090000C948B000C948B000C948B000C948B00B4
:1000A0000C948B000C948B000C948B000C948B00A4
:1000B0000C948B000C948B000C948B000C948B0094
:1000C0000C948B000C948B000C948B000C948B0084
:1000D0000C948B000C948B000C948B000C948B0074
:1000E0000C948B0011241FBECFEFD1E2DEBFCDBF39
:1000F00000E00CBF12E0A0E0B2E0E4E3F4E000E0D6
:100100000BBF02C007900D92AE32B107D9F70E9423
:10011000AF010C9418020C9400001092C50087E601
:100120008093C40088E08093C10086E08093C20081
:1001300008959091C00095FFFCCF8093C60008956C
:10014000CF93DF93EC018991811103C0DF91CF91AF
:1001500008950E949900F7CFCF93DF9300D01F92AC
:10016000CDB7DEB74AE0BE016F5F7F4F90E00E94DF
:10017000E301CE0101960E94A0000F900F900F9016
:100180000F90DF91CF910895FC0121E030E001C094
:10019000220F6A95EAF78081413019F4282B2083D9
:1001A000089520952823FBCFFC0121E030E001C019
:1001B000220F6A95EAF78081442319F0282B2083C7
:1001C000089520952823FBCFCF93DF931F92CDB7BF
:1001D000DEB78983298181E090E001C0880F6A95AC
:1001E000EAF782230F90DF91CF910895CF9380B1EA
:1001F00060E00E94E4008823D1F380EA8A95F1F759
:1002000080B160E00E94E400C1E0811101C0C0E063
:1002100080B160E00E94E4008111FACF8C2FCF9171
:100220000895CF93DF93D8E080E0C82FCC0F0E94D1
:10023000F6008C2BD150C9F7DF91CF9108958F92A2
:100240009F92BF92CF92DF92EF92FF920F931F93F4
:10025000CF93DF9300D01F921F92CDB7DEB77C0102
:100260008B01CE0101966C0185E0F60111928A9511
:10027000E9F741E060E081E290E00E94C40040E0E4
:1002800060E082E290E00E94D400FFEF29EF80E07E
:10029000F15020408040E1F700C0000041E060E004
:1002A00082E290E00E94D40090EA9A95F1F740E053
:1002B00060E081E290E00E94C400E5EDEA95F1F78C
:1002C000000080B160E00E94E400B82E81113EC0C1
:1002D0008FE391E00197F1F700C0000080B160E08A
:1002E0000E94E4008823A9F1EFE3F1E03197F1F7F0
:1002F00000C000004E01F6E08F0E911C0E9411011B
:10030000F60181936F01E815F905C1F729819B81F9
:100310008A81820F890F3C81830F3D8183131CC02A
:10032000F7012083F80190838B2D0F900F900F9091
:100330000F900F90DF91CF911F910F91FF90EF9051
:10034000DF90CF90BF909F908F900895BB24B3947F
:10035000EBCF92E0B92EE8CF83E0B82EE5CFCF9374
:10036000DF931F921F92CDB7DEB70E948D00BE01B2
:100370006F5F7F4FCE0102960E941F01182F8111DF
:100380001CC080E092E00E94A00089810E94AC0025
:100390008EE092E00E94A0008A810E94AC008AE276
:1003A00092E00E94A0002FEF87EA91E62150804062
:1003B0009040E1F700C00000DACF8CE192E00E94AB
:1003C000A000812FEACFBB274A3031F4992322F4D1
:1003D000BDE2909581959F4F0C94EF01BB27FB01E7
:1003E0005527AA27880F991FAA1FA41710F0A41B2E
:1003F00083955051B9F7A05DAA3308F0A95DA19388
:10040000009779F7B111B1931192CB010C940802C6
:10041000DC01FC01672F71917723E1F7329704C06B
:100420007C916D9370836291AE17BF07C8F30895F6
:04043000F894FFCF6E
:1004340054656D70657261747572653D2000432C5E
:100444002048756D69646974653D200044485431E1
:0E04540031206572726F723A20000D0A0000AE
:00000001FF
